:020000040000FA
:100000000C9463000C948B000C948B000C943F06B2
:100010000C943F060C943F060C948B000C948B00C0
:100020000C948B000C948B000C948B000C948B0024
:100030000C948B000C948B000C948B000C948B0014
:100040000C94F5050C948B000C94C3050C949D0541
:100050000C948B000C948B000C948B000C948B00F4
:100060000C94B7060C948B000000000024002700BD
:100070002A0000000008000201000003040700003D
:1000800000000000000000000000230026002900FE
:1000900000000000250028002B00040404040404D0
:1000A0000404020202020202030303030303010227
:1000B00004081020408001020408102001020408F6
:1000C0001020D2073C0B11241FBECFEFD8E0DEBFBB
:1000D000CDBF11E0A0E0B1E0EEE4FBE102C005908D
:1000E0000D92A435B107D9F722E0A4E5B1E001C033
:1000F0001D92A63FB207E1F710E0C2E6D0E004C0CF
:100100002197FE010E94770DC136D107C9F70E94E1
:10011000CA080C949A0D0C940000AF92BF92CF9233
:10012000DF92EF92FF920F931F93CF93DF936C01B7
:100130007B018B01040F151FEB015E01AE18BF0898
:10014000C017D10759F06991D601ED91FC9101904A
:10015000F081E02DC6010995892B79F7C501DF9162
:10016000CF911F910F91FF90EF90DF90CF90BF90B4
:10017000AF900895FC01538D448D252F30E0842FDE
:1001800090E0821B930B541710F0CF9608950197BF
:100190000895FC01918D828D981761F0A28DAE0FAC
:1001A000BF2FB11D5D968C91928D9F5F9F73928F33
:1001B00090E008958FEF9FEF0895FC01918D828D5F
:1001C000981731F0828DE80FF11D858D90E008952C
:1001D0008FEF9FEF0895FC01918D228D892F90E084
:1001E000805C9F4F821B91098F739927089580E24D
:1001F00092E00E94EB0021E0892B09F420E0822F9D
:10020000089580E090E0892B29F00E94F700811189
:100210000C9400000895FC01A48DA80FB92FB11D06
:10022000A35ABF4F2C91848D90E001968F7399272C
:10023000848FA689B7892C93A089B1898C9183700A
:1002400080648C93938D848D981306C00288F38903
:10025000E02D80818F7D80830895EF92FF920F9330
:100260001F93CF93DF93EC0181E0888F9B8D8C8D62
:1002700098131AC0E889F989808185FF15C09FB756
:10028000F894EE89FF896083E889F9898081837019
:10029000806480839FBF81E090E0DF91CF911F91C8
:1002A0000F91FF90EF900895F62E0B8D10E00F5FE9
:1002B0001F4F0F731127E02E8C8D8E110CC00FB6BF
:1002C00007FCFACFE889F989808185FFF5CFCE0157
:1002D0000E940B01F1CFEB8DEC0FFD2FF11DE35AC6
:1002E000FF4FF0829FB7F8940B8FEA89FB898081DA
:1002F0008062CFCFCF93DF93EC01888D8823B9F054
:10030000AA89BB89E889F9898C9185FD03C0808120
:1003100086FD0DC00FB607FCF7CF8C9185FFF2CF9D
:10032000808185FFEDCFCE010E940B01E9CFDF91E7
:10033000CF91089590E0FC01EE58FF4F2491FC010D
:10034000E255FF4F3491FC01E656FF4FE491EE2356
:10035000C9F0222339F0233001F1A8F4213019F13A
:10036000223029F1F0E0EE0FFF1FE057FF4FA5917B
:10037000B4918FB7F894EC91611126C030953E236B
:100380003C938FBF08952730A9F02830C9F024305E
:1003900049F7809180008F7D03C0809180008F7726
:1003A00080938000DFCF84B58F7784BDDBCF84B5A9
:1003B0008F7DFBCF8091B0008F778093B000D2CF3C
:1003C0008091B0008F7DF9CF3E2BDACFCF93DF93B2
:1003D000EC018091C5029091C602029749F4C130A8
:1003E000D10509F43BC06CF560E0209709F437C0F3
:1003F0008091C5029091C602049749F4C130D1059D
:1004000009F45CC00CF037C0209709F442C0809119
:10041000C5029091C602059709F0E5C0CA30D10522
:1004200008F0E1C0FE01E95EFD4F0C94770D760205
:1004300082029302A902C402C602CD02D902EA02D4
:10044000F102C230D105A9F060E0C330D10581F6D8
:100450008091C9020E949A0160E006C061E080912B
:10046000C9020E949A0161E08091CB020E949A0128
:10047000BFCF61E0EDCFC230D10539F1C330D10536
:1004800009F0C5CF61E08091C9020E949A0160E045
:1004900022C061E08091C9020E949A0160E08091CF
:1004A000CB020E949A0161E08091CD020E949A01E4
:1004B00060E08091CF020E949A01A9CF60E0809114
:1004C000C9020E949A0161E0EACF60E08091C9020E
:1004D0000E949A0161E08091CB020E949A0160E043
:1004E0008091CD020E949A0161E0E3CF60E08091AB
:1004F000C9020E949A0161E08091CB020E949A0198
:1005000061E00BC060E08091C9020E949A0161E045
:100510008091CB020E949A0160E08091CD020E94FE
:100520009A0160E010C060E08091C9020E949A01C7
:1005300061E08091CB020E949A0160E08091CD023F
:100540000E949A0161E08091CF020E949A0161E0CD
:1005500015C060E08091C9020E949A0161E080911B
:10056000CB020E949A0160E08091CD020E949A0124
:1005700061E08091CF020E949A0160E08091D102F7
:10058000DF91CF910C949A0161E0E4CF61E080911A
:10059000C9020E949A0160E0E2CF61E08091C90245
:1005A0000E949A0160E08091CB020E949A0161E072
:1005B000DBCF61E08091C9020E949A0160E08091E6
:1005C000CB020E949A0161E08091CD020E949A01C3
:1005D00060E0CFCF61E08091C9020E949A0160E0A3
:1005E0008BCF60E0F8CFDF91CF9108958F929F92EB
:1005F000AF92BF92EF92FF920F931F93CF93DF932F
:100600001092BE021092BD02C8ECD0E004E010E0EF
:100610005AE0E52EF12C209709F488C03FB7F894F2
:1006200080911C0290911D02A0911E02B0911F02A8
:1006300026B5A89B05C02F3F19F00196A11DB11D3D
:100640003FBFBA2FA92F982F8827820F911DA11D78
:10065000B11D42E0880F991FAA1FBB1F4A95D1F711
:100660004091D3025091D4026091D5027091D6028C
:100670004C015D01841A950AA60AB70A4091BF028F
:100680005091C0026091C1027091C2028416950619
:10069000A606B70608F4BFCF8093D3029093D40286
:1006A000A093D502B093D6028091C7029091C80260
:1006B0002091BD023091BE022130310519F501961D
:1006C0009093C8028093C7022091C3023091C40264
:1006D0008217930721F41092C8021092C702219743
:1006E0008091C7029091C8022091C5023091C60244
:1006F000B7012530310509F0B8010E94220D0E9492
:10070000E60189CF892B41F48091C3029091C40204
:100710009093C8028093C7028091C7029091C8024B
:1007200001979093C8028093C702D9CFDF91CF91F0
:100730001F910F91FF90EF90BF90AF909F908F907F
:100740000895CF93DF9390E0FC01E255FF4F249191
:1007500086569F4FFC0184918823D1F090E0880F4A
:10076000991FFC01E859FF4FA591B491FC01E05796
:10077000FF4FC591D49161110EC09FB7F8948C9131
:10078000E22FE0958E238C932881E223E8839FBF9C
:10079000DF91CF9108958FB7F894EC91E22BEC9311
:1007A0008FBFF6CF20910C0230910D022817390728
:1007B00071F490910A0280910B02981741F0E09138
:1007C0000A02F0E0EB53FE4F808190E008958FEF36
:1007D0009FEF08950895EF92FF920F931F93CF9389
:1007E000DF93DC015C96ED90FC905D97E114F104E1
:1007F00079F481E090E013969C938E93129790E0A9
:1008000080E0DF91CF911F910F91FF90EF900895BD
:100810005196ED91FC91529750968C915097982F4C
:1008200090950FB75E962C915E97122F127021FD56
:100830006095F8942081112319F1282B2083E7017A
:100840002197F1F728E0462F50E0308160FF1AC071
:10085000382B3083E7012197F1F7BA017595679539
:10086000215089F7112381F08081892380830FBF74
:100870005C968D919C910197F1F781E090E0C1CF5A
:100880002923DCCF3923E5CF9081892BEFCF20912D
:100890000C0230910D022817390771F480910B0278
:1008A00020910A0290E0805C9F4F821B910960E4D6
:1008B00070E00E94220D089590E080E0089520915C
:1008C0000C0230910D0228173907B9F490910A02F1
:1008D00080910B02981789F0E0910A02F0E0EB5347
:1008E000FE4F808120910A0230E02F5F3F4F2F732F
:1008F000332720930A0290E008958FEF9FEF089529
:1009000020917B01260F3327331F21323105ECF470
:1009100020919F01FC0190E080E0243069F082E0AA
:100920000895A0917B012191AC01455A5E4FA40F1F
:10093000B52FB11D2C930196861798F380917B01FA
:10094000680F60937B0180E0089581E008958FEF48
:100950009FEF08958FEF9FEF08958091540190E0ED
:100960009195819591090895CF93DF93CB01EA0189
:10097000642F0E948004CE01DF91CF910895CF9320
:10098000DF931F92CDB7DEB7698361E0CE01019698
:100990000E94800481E090E00F90DF91CF91089554
:1009A00090E080E00895FB0101900020E9F7319785
:1009B000AF01461B570BDC01ED91FC910280F381E6
:1009C000E02D09948F929F92AF92BF920F931F9345
:1009D000CF93DF93CDB7DEB7A1970FB6F894DEBF04
:1009E0000FBECDBF19A2423008F44AE08E010F5D60
:1009F0001F4F842E912CB12CA12CA50194010E9493
:100A0000360DE62FB901CA01EA3004F5E05DD801E0
:100A1000EE938D01232B242B252B79F790E080E09A
:100A2000109729F0BD0187ED92E00E94D304A196B2
:100A30000FB6F894DEBF0FBECDBFDF91CF911F91EF
:100A40000F91BF90AF909F908F900895E95CDFCF9A
:100A50001F93CF93DF9385ED8093BC008091570166
:100A600090915801A0915901B0915A010796A11D8A
:100A7000B11D23E0B695A795979587952A95D1F74F
:100A80002091BC0024FD03C010929F0152C04091F0
:100A90005701509158016091590170915A01452BAD
:100AA000462B472B69F30097A105B10541F025E3DB
:100AB0002A95F1F700000197A109B109E1CF8091D2
:100AC0005601C1E0C0935501882399F1D091B80037
:100AD0001091BA008091BC008A7B8093BC0060E0DA
:100AE00082E10E949A0160E083E10E949A011092E3
:100AF0009F01C093A1011092A00161E082E10E94D8
:100B00009A0161E083E10E949A018091B9008E7F91
:100B10008093B9008091B9008D7F8093B90088E4FB
:100B20008093B80085E48093BC001093BA00D09302
:100B3000B800DF91CF911F9108951F920F920FB6C9
:100B40000F9211242F933F934F935F936F937F9353
:100B50008F939F93AF93BF93EF93FF9380E292E0C5
:100B60000E940B01FF91EF91BF91AF919F918F91E7
:100B70007F916F915F914F913F912F910F900FBE99
:100B80000F901F9018951F920F920FB60F9211247D
:100B90002F938F939F93EF93FF93E0913002F09107
:100BA00031028081E0913602F091370282FD1BC054
:100BB0009081809139028F5F8F7320913A02821762
:100BC00041F0E0913902F0E0E05EFD4F958F8093B7
:100BD0003902FF91EF919F918F912F910F900FBE4E
:100BE0000F901F9018958081F4CF1F920F920FB62F
:100BF0000F9211242F933F938F939F93AF93BF93A3
:100C00008091060290910702A0910802B09109021A
:100C10003091050223E0230F2D3758F50196A11DD1
:100C2000B11D209305028093060290930702A093C2
:100C30000802B093090280911C0290911D02A091BC
:100C40001E02B0911F020196A11DB11D80931C02CE
:100C500090931D02A0931E02B0931F02BF91AF910B
:100C60009F918F913F912F910F900FBE0F901F90EA
:100C7000189526E8230F0296A11DB11DD2CF1F9211
:100C80000F920FB60F9211242F933F934F935F93C0
:100C90006F937F938F939F93AF93BF93EF93FF9344
:100CA000E0910C02F0910D02309749F0A685B785CE
:100CB0008585968D91FF14C09C918923A1F4FF91A5
:100CC000EF91BF91AF919F918F917F916F915F91C4
:100CD0004F913F912F910F900FBE0F901F9018953D
:100CE0009C91892361F7A389B4899C91858980951A
:100CF00089238C93868997890197F1F7608D718D8F
:100D0000A685B785558538E020E0CB010197F1F73E
:100D1000822F90E095958795282F4C91452309F0D7
:100D20002068315091F7868D81FD209580910B02CE
:100D300090E001968F73992730910A02381799F045
:100D4000A0910B02B0E0AB53BE4F2C9380930B02EB
:100D5000828D938D0197F1F7A389B4898C91958940
:100D6000892B8C93ACCF868D8160868FF1CF1F92BB
:100D70000F920FB60F9211242F933F934F935F93CF
:100D80006F937F938F939F93AF93BF93EF93FF9353
:100D90008091B900887F803609F44AC0F0F5883226
:100DA00009F4A5C018F5803109F499C0B8F4882376
:100DB00009F4F5C0883009F492C0FF91EF91BF911A
:100DC000AF919F918F917F916F915F914F913F91E3
:100DD0002F910F900FBE0F901F901895883109F436
:100DE00086C0803251F780939E0114C0803409F48C
:100DF0009BC040F48033B9F38833F9F680939E01A9
:100E000085ECAEC0803509F483C0883509F494C000
:100E1000883499F60E942805D0CF883909F48AC011
:100E200038F5883729F050F4883611F0803729F6E4
:100E300083E080939F0110929D0155C0883809F48A
:100E400079C0803919F0803809F0B7CF80919D01C1
:100E5000803208F06FC0E0919D0181E08E0F809399
:100E60009D018091BB00F0E0E358FE4F80833BC0C2
:100E7000803B39F0D0F4803A09F477C0883A09F021
:100E80009CCF84E080939F0110927C0110927B01A3
:100E9000F0E0E0E0099580917B0181110FC081E0D5
:100EA00080937B0110925B0109C0803C09F4A8CFBC
:100EB000883C09F4A5CF883B09F07FCFE0917C0105
:100EC00081E08E0F80937C01F0E0E55AFE4F808137
:100ED0008093BB0090917C0180917B0129C080911F
:100EE000C4018093BB0085EC8093BC0066CF9091D9
:100EF000C3018091C201981758F5E091C30181E0C8
:100F00008E0F8093C301F0E0EE55FE4F8081E9CF54
:100F1000E091C30181E08E0F8093C3018091BB00FB
:100F2000F0E0EE55FE4F80839091C3018091C201A5
:100F30009817C8F285E8D8CFE091C30181E08E0F01
:100F40008093C3018091BB00F0E0EE55FE4F80839B
:100F50008091A10181115ECF81E08093A00184EA9C
:100F60008093BC0010929F0128CF85EC8093BC0039
:100F700010929F0180919D01803230F4E0919D019B
:100F8000F0E0E358FE4F108260919D0170E08DE724
:100F900091E0F0E0E0E0099510929D010ECF1092F3
:100FA0009E0138CFCF93DF9310922302109222023A
:100FB00088EE93E0A0E0B0E08093240290932502B5
:100FC000A0932602B093270224E031E0309321025F
:100FD0002093200225EC30E030932D0220932C0248
:100FE00024EC30E030932F0220932E0220EC30E0EE
:100FF000309331022093300221EC30E03093330201
:101000002093320222EC30E03093350220933402F8
:1010100026EC30E0309337022093360210923902EA
:1010200010923A0210923B0210923C021092DA02A5
:101030001092D9028093DB029093DC02A093DD0230
:10104000B093DE0286E191E09093D8028093D702BC
:101050001092EE021092ED021092F0021092EF0246
:101060001092F2021092F1021092F4021092F30226
:101070006091F5026E7F6D7F6093F50266956170F9
:1010800081E0682783E00E949A0161E083E00E948A
:10109000A103E1EBF0E0E491E093E702EDE9F0E099
:1010A000E491F0E0EE0FFF1FE057FF4F8591949120
:1010B0009093E9028093E80260E082E00E94A1033D
:1010C0008091F50281FD04C061E082E00E949A01F6
:1010D00082E08093E302E0EBF0E0E491E093E4024D
:1010E000ECE9F0E0E491F0E0EE0FFF1FEA57FF4F6C
:1010F000859194919093E6028093E5021092C80244
:101100001092C7021092BE021092BD021092D3023A
:101110001092D4021092D5021092D60288EC90E080
:101120009093C4028093C302C4E0D0E0D093CA027B
:10113000C093C90285E090E09093CC028093CB02EB
:1011400086E090E09093CE028093CD0287E090E01D
:101150009093D0028093CF0261E084E00E94A103CB
:1011600061E08091CB020E94A10361E08091CD02F9
:101170000E94A10361E08091CF020E94A10310921E
:10118000D2021092D102D093C602C093C502DF9161
:10119000CF910895789484B5826084BD84B58160D0
:1011A00084BD85B5826085BD85B5816085BD809132
:1011B0006E00816080936E001092810080918100AA
:1011C00082608093810080918100816080938100A2
:1011D000809180008160809380008091B100846064
:1011E0008093B1008091B00081608093B0008091C5
:1011F0007A00846080937A0080917A008260809384
:101200007A0080917A00816080937A0080917A00E0
:10121000806880937A001092C100E0913002F091D2
:10122000310282E08083E0912C02F0912D02108245
:10123000E0912E02F0912F028FEC80831092380201
:10124000E0913402F091350286E08083E091320231
:10125000F0913302808180618083E0913202F091CD
:101260003302808188608083E0913202F091330202
:10127000808180688083E0913202F0913302808126
:101280008F7D80831092F2021092F1021092F00290
:101290001092EF021092EE021092ED028DE991E0B1
:1012A0009093F4028093F3029091E302963108F058
:1012B00047C02DEB30E03093EE022093ED022BE996
:1012C00031E03093F0022093EF022CE231E03093D2
:1012D000F2022093F1022091680084E0983048F0F7
:1012E00031E09E3008F430E081E001C0880F3A958B
:1012F000EAF7822B809368002DE630E0983050F0BA
:101300002BE630E09E3030F02CE630E0963110F0E5
:1013100030E020E03093EB022093EA02292F30E006
:10132000983008F085C081E001C0880F9A95EAF7EF
:101330008093EC028091F3029091F4020197F1F70F
:101340008091F1029091F202892B49F1E0910C0217
:10135000F0910D0282E0E73DF80709F1309739F08E
:10136000A389B4899C918589809589238C938091E8
:10137000F5028E7F8093F50210920B0210920A0202
:1013800087ED92E090930D0280930C02E091EA02C7
:10139000F091EB0280819091EC02892B8083209167
:1013A000C3023091C402032E000C440B550B60E0C5
:1013B00077E883E993E00E94580DCA01B9012CE354
:1013C00030E040E050E00E94580D2093BF0230937F
:1013D000C0024093C1025093C20260E082E00E94CA
:1013E000A10361E083E00E94A10310E4C0E0D0E02B
:1013F00087ED92E00E944704181619060CF031C1DF
:1014000087ED92E00E945F0420911A0230911B0246
:10141000F901E25FFD4F8A30C1F02B303105A8F4AD
:1014200080832F5F3F4F30931B0220931A02E0CF3F
:101430009E3040F42850310981E001C0880F2A9580
:10144000EAF776CF2E503109F7CF108264E271E0CF
:1014500080E292E00E94D30463E371E080E292E0D4
:101460000E94D30466E371E08EE092E00E94910D49
:10147000892B09F064C06BE371E087ED92E00E9474
:10148000D30410937C0080917A00806480937A006A
:1014900080917A0086FDFCCF809178006091790080
:1014A000762F682F072E000C880B990B0E94FB0BE0
:1014B00020E030E040EA50E40E94B00C20E030E050
:1014C00040E85AE30E94B00C20E030E040E650E4EF
:1014D0000E94B00C20E030E0A9010E94590B6B0182
:1014E0007C014B015C01AC019B010E941D0D60E47D
:1014F00071E081111AC026013701E89477F82FEFC7
:101500003FEF4FE75FE7C301B2010E941D0D81115C
:101510002FC02FEF3FEF4FE75FE7C301B2010E94FB
:10152000C50B18162CF564E471E087ED92E00E947B
:10153000D30464E371E087ED92E00E94D3046CE48D
:1015400071E08EE092E00E94910D892B11F40E94CF
:10155000F6026FE471E08EE092E00E94910D892B1B
:1015600011F40E94F60210921B0210921A0240CF50
:101570002FEF3FEF4FE75FE4C701B6010E94AB0CCE
:1015800018161CF468E471E0D0CF2FEF3FEF4FE75F
:101590005FECC701B6010E94C50B87FDF3CF20E0C9
:1015A00030E0A901C701B6010E94C50B87FF0BC03F
:1015B0006DE287ED92E00E94EB0346015701B7FA16
:1015C000B094B7F8B0942AE037ED43EA5BE3C50185
:1015D000B4010E94590B4B015C010E94CA0B6B01C4
:1015E0007C010E94F90B9B01AC01C501B4010E9472
:1015F000580B4B015C014AE0C701B6010E94E204AE
:101600006EE287ED92E00E94EB0320E030E040E2E2
:1016100051E4C501B4010E94B00C4B015C010E9471
:10162000CA0B6B01F12CE12C4AE0C701B6010E9404
:10163000E204C701B6010E94F90B9B01AC01C50190
:10164000B4010E94580B20E030E040E251E40E94D7
:10165000B00C0E94CA0B90E080E04AE00E94E204D5
:1016600068CF209709F4C4CE0E94F700882309F4BC
:10167000BFCE0E940000BCCE86E191E09093D802DC
:101680008093D70280910C0290910D02875D924069
:1016900071F4E091EA02F091EB0290818091EC020A
:1016A00080958923808310920D0210920C02089578
:1016B0005058BB27AA270E94700B0C94710C0E94F3
:1016C000630C38F00E946A0C20F039F49F3F19F443
:1016D00026F40C94600C0EF4E095E7FB0C945A0C85
:1016E000E92F0E94820C58F3BA1762077307840728
:1016F000950720F079F4A6F50C94A40C0EF4E0956F
:101700000B2EBA2FA02D0B01B90190010C01CA01BB
:10171000A0011124FF27591B99F0593F50F4503E66
:1017200068F11A16F040A22F232F342F4427585F58
:10173000F3CF469537952795A795F0405395C9F770
:101740007EF41F16BA0B620B730B840BBAF0915028
:10175000A1F0FF0FBB1F661F771F881FC2F70EC0C7
:10176000BA0F621F731F841F48F48795779567959A
:10177000B795F7959E3F08F0B0CF9395880F08F086
:101780009927EE0F9795879508950E94360C08F4D7
:1017900081E008950E948A0C88F09F5798F0B92F35
:1017A0009927B751B0F0E1F0660F771F881F991F96
:1017B0001AF0BA95C9F714C0B13091F00E94A40C88
:1017C000B1E008950C94A40C672F782F8827B85F98
:1017D00039F0B93FCCF3869577956795B395D9F7EE
:1017E0003EF490958095709561957F4F8F4F9F4FF8
:1017F0000895E89409C097FB3EF490958095709504
:1018000061957F4F8F4F9F4F9923A9F0F92F96E94C
:10181000BB279395F695879577956795B795F111C1
:10182000F8CFFAF4BB0F11F460FF1BC06F5F7F4F5E
:101830008F4F9F4F16C0882311F096E911C0772370
:1018400021F09EE8872F762F05C0662371F096E879
:10185000862F70E060E02AF09A95660F771F881F48
:10186000DAF7880F9695879597F90895990F0008EC
:10187000550FAA0BE0E8FEEF16161706E807F90762
:10188000C0F012161306E407F50798F0621B730BFD
:10189000840B950B39F40A2661F0232B242B252B7E
:1018A00021F408950A2609F4A140A6958FEF811D21
:1018B000811D089597F99F6780E870E060E00895C2
:1018C0009FEF80EC089500240A9416161706180658
:1018D0000906089500240A94121613061406050634
:1018E0000895092E0394000C11F4882352F0BB0FC5
:1018F00040F4BF2B11F460FF04C06F5F7F4F8F4F28
:101900009F4F089557FD9058440F551F59F05F3F62
:1019100071F04795880F97FB991F61F09F3F79F011
:1019200087950895121613061406551FF2CF469593
:10193000F1DF08C0161617061806991FF1CF869515
:101940007105610508940895E894BB2766277727F9
:10195000CB0197F908950E94360C08F48FEF089593
:101960000E94C30C0C94710C0E94630C38F00E940E
:101970006A0C20F0952311F00C945A0C0C94600C16
:1019800011240C94A50C0E94820C70F3959FC1F356
:10199000950F50E0551F629FF001729FBB27F00D1D
:1019A000B11D639FAA27F00DB11DAA1F649F662772
:1019B000B00DA11D661F829F2227B00DA11D621FC1
:1019C000739FB00DA11D621F839FA00D611D221F7B
:1019D000749F3327A00D611D231F849F600D211D5F
:1019E000822F762F6A2F11249F5750409AF0F1F0E2
:1019F00088234AF0EE0FFF1FBB1F661F771F881F4B
:101A000091505040A9F79E3F510580F00C945A0C1C
:101A10000C94A50C5F3FE4F3983ED4F3869577953C
:101A20006795B795F795E7959F5FC1F7FE2B880FF0
:101A3000911D9695879597F908950E94360C880B0D
:101A4000990B089597FB072E16F4009407D077FDA5
:101A500009D00E947D0D07FC05D03EF4909581953C
:101A60009F4F0895709561957F4F0895A1E21A2EBA
:101A7000AA1BBB1BFD010DC0AA1FBB1FEE1FFF1F32
:101A8000A217B307E407F50720F0A21BB30BE40B82
:101A9000F50B661F771F881F991F1A9469F76095C9
:101AA0007095809590959B01AC01BD01CF01089583
:101AB000052E97FB1EF400940E946F0D57FD07D072
:101AC0000E94360D07FC03D04EF40C946F0D509518
:101AD0004095309521953F4F4F4F5F4F089590951A
:101AE0008095709561957F4F8F4F9F4F0895EE0FB2
:101AF000FF1F0590F491E02D0994AA1BBB1B51E137
:101B000007C0AA1FBB1FA617B70710F0A61BB70B6D
:101B1000881F991F5A95A9F780959095BC01CD0112
:101B20000895FB01DC018D91019080190110D9F31A
:101B3000990B089510E0C2E6D0E004C0FE010E94B7
:101B4000770D2196C336D107C9F7F894FFCF00006F
:101B500000002D018D00BA007A01EB00C900DD0004
:101B600000000000EB038D00D004EA0347045F048B
:101B7000D2036F64637A7974756A652064616E65F7
:101B8000000D0A00726561640043504820006E61D8
:101B90006E00696E66006F766600757000646F7720
:021BA0006E00D5
:107E0000112484B714BE81FFF0D085E080938100F7
:107E100082E08093C00088E18093C10086E0809377
:107E2000C20080E18093C4008EE0C9D0259A86E02C
:107E300020E33CEF91E0309385002093840096BBD3
:107E4000B09BFECF1D9AA8958150A9F7CC24DD24C4
:107E500088248394B5E0AB2EA1E19A2EF3E0BF2EE7
:107E6000A2D0813461F49FD0082FAFD0023811F036
:107E7000013811F484E001C083E08DD089C08234E0
:107E800011F484E103C0853419F485E0A6D080C0E4
:107E9000853579F488D0E82EFF2485D0082F10E0AE
:107EA000102F00270E291F29000F111F8ED06801E7
:107EB0006FC0863521F484E090D080E0DECF843638
:107EC00009F040C070D06FD0082F6DD080E0C81688
:107ED00080E7D80618F4F601B7BEE895C0E0D1E017
:107EE00062D089930C17E1F7F0E0CF16F0E7DF06D8
:107EF00018F0F601B7BEE89568D007B600FCFDCFD4
:107F0000A601A0E0B1E02C9130E011968C91119780
:107F100090E0982F8827822B932B1296FA010C0160
:107F200087BEE89511244E5F5F4FF1E0A038BF0790
:107F300051F7F601A7BEE89507B600FCFDCF97BE46
:107F4000E89526C08437B1F42ED02DD0F82E2BD052
:107F50003CD0F601EF2C8F010F5F1F4F84911BD097
:107F6000EA94F801C1F70894C11CD11CFA94CF0C13
:107F7000D11C0EC0853739F428D08EE10CD085E9AC
:107F80000AD08FE07ACF813511F488E018D01DD067
:107F900080E101D065CF982F8091C00085FFFCCF94
:107FA0009093C60008958091C00087FFFCCF809118
:107FB000C00084FD01C0A8958091C6000895E0E648
:107FC000F0E098E1908380830895EDDF803219F02E
:107FD00088E0F5DFFFCF84E1DECF1F93182FE3DFCA
:107FE0001150E9F7F2DF1F91089580E0E8DFEE27F6
:047FF000FF270994CA
:027FFE00040479
:00000001FF
